{
  "_format": "hh-sol-artifact-1",
  "contractName": "gasChallenge",
  "sourceName": "contracts/gasChallenge.sol",
  "abi": [
    {
      "inputs": [],
      "name": "getSumOfArray",
      "outputs": [
        {
          "internalType": "uint256",
          "name": "",
          "type": "uint256"
        }
      ],
      "stateMutability": "view",
      "type": "function"
    },
    {
      "inputs": [],
      "name": "notOptimizedFunction",
      "outputs": [],
      "stateMutability": "nonpayable",
      "type": "function"
    },
    {
      "inputs": [],
      "name": "optimizedFunction",
      "outputs": [],
      "stateMutability": "nonpayable",
      "type": "function"
    }
  ],
  "bytecode": "0x6080604052604051806101400160405280600160ff168152602001600260ff168152602001600360ff168152602001600460ff168152602001600560ff168152602001600660ff168152602001600760ff168152602001600860ff168152602001600960ff168152602001600a60ff16815250600090600a610082929190610095565b5034801561008f57600080fd5b506100f7565b82600a81019282156100c9579160200282015b828111156100c8578251829060ff169055916020019190600101906100a8565b5b5090506100d691906100da565b5090565b5b808211156100f35760008160009055506001016100db565b5090565b6102bf806101066000396000f3fe608060405234801561001057600080fd5b50600436106100415760003560e01c806368b5f223146100465780637ce418941461005057806380d2c8031461005a575b600080fd5b61004e610078565b005b6100586100b4565b005b61006261012a565b60405161006f9190610194565b60405180910390f35b60005b600a8110156100b15760008082600a8110610099576100986101af565b5b018190555080806100a99061020d565b91505061007b565b50565b600080600a806020026040519081016040528092919082600a80156100ee576020028201915b8154815260200190600101908083116100da575b5050505050905060005b600a8110156101265760008082600a8110610116576101156101af565b5b01819055508060010190506100f8565b5050565b6000806000905060005b600a81101561017357600081600a8110610151576101506101af565b5b01548261015e9190610255565b9150808061016b9061020d565b915050610134565b508091505090565b6000819050919050565b61018e8161017b565b82525050565b60006020820190506101a96000830184610185565b92915050565b7f4e487b7100000000000000000000000000000000000000000000000000000000600052603260045260246000fd5b7f4e487b7100000000000000000000000000000000000000000000000000000000600052601160045260246000fd5b60006102188261017b565b91507fffffffffffffffffffffffffffffffffffffffffffffffffffffffffffffffff820361024a576102496101de565b5b600182019050919050565b60006102608261017b565b915061026b8361017b565b9250828201905080821115610283576102826101de565b5b9291505056fea2646970667358221220d7f41268da67daa02778be39bdf7f997705fa95b2276639d1346e112a6aaeb6764736f6c63430008120033",
  "linkReferences": {},
  "deployedLinkReferences": {}
}